:0400030002080000EF
:10010400758901758CD8758AF0D2A9D2AFD28C22A8
:1000CC00E4FDFCC3ED9FEC9E5015E4FBFA0BBB006A
:0F00DC00010AEB64784A70F50DBD00010C80E459
:0100EB0022F2
:1000EC0043B20F53B1F0D2B3D2B27FE07E93120081
:0800FC00CCC2B312010480FE26
:03000B0002009A56
:10009A00C0E0C0D075D000C006758CD8758AF0054E
:1000AA0009E50970020508AE08C39458EE940240A7
:1000BA000A750800750900B2B2D2B3D006D0D0D002
:0200CA00E03222
:0300000002000EED
:0C000E00787FE4F6D8FD758109020055EA
:10001A000200ECE493A3F8E493A34003F68001F210
:10002A0008DFF48029E493A3F85407240CC8C333E7
:10003A00C4540F4420C8834004F456800146F6DFB6
:10004A00E4800B0102040810204080900003E47E43
:10005A00019360BCA3FF543F30E509541FFEE493AB
:10006A00A360010ECF54C025E060A840B8E493A372
:10007A00FAE493A3F8E493A3C8C582C8CAC583CA9D
:10008A00F0A3C8C582C8CAC583CADFE9DEE780BE55
:0100070000F8
:00000001FF
