:0400030002080000EF
:1000CA00758901758CD8758AF0D2A9D2AFD28C22E3
:0D00DA0053B2F753B1F7C2B31200CA80FE53
:03000B0002009A56
:10009A00C0E0C0D075D000C006758CD8758AF0054E
:1000AA0009E50970020508AE08C3943CEE940040C5
:1000BA0008750800750900B2B3D006D0D0D0E03276
:0300000002000EED
:0C000E00787FE4F6D8FD758109020055EA
:10001A000200DAE493A3F8E493A34003F68001F222
:10002A0008DFF48029E493A3F85407240CC8C333E7
:10003A00C4540F4420C8834004F456800146F6DFB6
:10004A00E4800B0102040810204080900003E47E43
:10005A00019360BCA3FF543F30E509541FFEE493AB
:10006A00A360010ECF54C025E060A840B8E493A372
:10007A00FAE493A3F8E493A3C8C582C8CAC583CA9D
:10008A00F0A3C8C582C8CAC583CADFE9DEE780BE55
:0100070000F8
:00000001FF
